:100000000C945E000C9486000C9486000C94860080
:100010000C9486000C9486000C9486000C94860048
:100020000C9486000C9486000C9486000C94860038
:100030000C9486000C9486000C9486000C94860028
:100040000C9481030C9486000C94F1030C94CB0364
:100050000C9486000C9486000C9486000C94860008
:100060000C9486000C9486000000000024002700F9
:100070002A0000000000250028002B0004040404CE
:100080000404040402020202020203030303030342
:10009000010204081020408001020408102001021F
:1000A00004081020000000080002010000030407FB
:1000B0000000000000000000C7047A0711241FBEE2
:1000C000CFEFD8E0DEBFCDBF11E0A0E0B1E0E6E9C0
:1000D000F6E102C005900D92A43CB107D9F722E0E9
:1000E000A4ECB1E001C01D92A03AB207E1F710E024
:1000F000CDE5D0E004C02197FE010E94060ACC3570
:10010000D107C9F70E9430050C943E0B0C940000F7
:100110008E3008F08E508770806480937C008091D0
:100120007A00806480937A0080917A0086FDFCCF0B
:10013000809178002091790090E0922B0895CF92E1
:10014000DF92EF92FF920F931F93CF93DF936C0197
:100150007A018B01C0E0D0E0CE15DF0589F0D8012F
:100160006D918D01D601ED91FC910190F081E02D12
:10017000C6010995892B11F47E0102C02196ECCFAE
:10018000C701DF91CF911F910F91FF90EF90DF900A
:10019000CF900895FC01918D828D981761F0828D2A
:1001A000DF01A80FB11D5D968C91928D9F5F9F73AB
:1001B000928F90E008958FEF9FEF0895FC01918D4D
:1001C000828D981731F0828DE80FF11D858D90E0BA
:1001D00008958FEF9FEF0895FC01918D228D892F57
:1001E00090E0805C9F4F821B91098F73992708953F
:1001F00083EF91E00E94EC0021E0892B09F420E0DC
:10020000822F0895FC01848DDF01A80FB11DA35A30
:10021000BF4F2C91848D90E001968F739927848F26
:10022000A689B7892C93A089B1898C9180648C931D
:10023000938D848D981306C00288F389E02D808108
:100240008F7D80830895EF92FF920F931F93CF933A
:10025000DF93EC0181E0888F9B8D8C8D981305C016
:10026000E889F989808185FD24C0F62E0B8D10E088
:100270000F5F1F4F0F731127E02E8C8DE8120CC0FB
:100280000FB607FCFACFE889F989808185FFF5CFA1
:10029000CE010E940201F1CF8B8DFE01E80FF11D0E
:1002A000E35AFF4FF0820B8FEA89FB8980818062DD
:1002B00007C0EE89FF896083E889F98980818064BD
:1002C000808381E090E0DF91CF911F910F91FF90AB
:1002D000EF900895CF93DF93EC01888D8823C9F0C8
:1002E000EA89FB89808185FD05C0A889B9898C913F
:1002F00086FD0FC00FB607FCF5CF808185FFF2CFDA
:10030000A889B9898C9185FFEDCFCE010E940201A9
:10031000E7CFDF91CF91089580E090E0892B29F01D
:100320000E94F80081110C9400000895EDE9F0E0BE
:100330002491E9E8F0E08491882399F090E0880F17
:10034000991FFC01E859FF4FA591B491FC01EE58AB
:10035000FF4F859194918FB7F894EC91E22BEC9339
:100360008FBF81E00E9423040E94900480E00E94DD
:1003700023040E949004F5CF0E94390B611571058A
:1003800079F0FB0101900020E9F73197AF01461B9E
:10039000570BDC01ED91FC910280F381E02D099473
:1003A00080E090E008958F929F92AF92BF920F935A
:1003B0001F93CF93DF93CDB7DEB7A1970FB6F89415
:1003C000DEBF0FBECDBF19A2423008F44AE08E0155
:1003D0000F5D1F4F842E912CA12CB12CA5019401EF
:1003E0000E94D009E62FB901CA0101501109EA3073
:1003F00014F4E05D01C0E95CD801EC93232B242BBD
:10040000252B61F7B80183EF91E00E94BE01A19610
:100410000FB6F894DEBF0FBECDBFDF91CF911F9115
:100420000F91BF90AF909F908F9008954F925F92E1
:100430006F927F928F929F92AF92BF92CF92DF92F4
:10044000EF92FF926B017C01B42E9B01AC010E94E4
:10045000B709882319F066E171E027C0260137014A
:10046000E89477F82FEF3FEF4FE75FE7C301B20162
:100470000E94B70981110DC02FEF3FEF4FE75FE7F3
:10048000C301B2010E94ED0718161CF46AE171E085
:100490000CC02FEF3FEF4FE75FE4C701B6010E94AA
:1004A0004509181694F46EE171E083EF91E0FF9036
:1004B000EF90DF90CF90BF90AF909F908F907F9004
:1004C0006F905F904F900C94BE012FEF3FEF4FE77E
:1004D0005FECC701B6010E94ED0787FDE4CF20E085
:1004E00030E0A901C701B6010E94ED0787FF11C0E6
:1004F000E091F301F091F4010190F081E02D6DE2C3
:1005000083EF91E009954C01F7FAF094F7F8F09435
:1005100002C0812C912CA12C60E070E080E09FE370
:10052000AB1441F020E030E040E251E40E94F207D9
:10053000A394F6CF9B01AC01C701B6010E948107CD
:100540002B013C010E9464086B017C010E9493080E
:100550009B01AC01C301B2010E9480072B013C0149
:100560004AE0C701B6010E94D3017C01E80CF91CE6
:10057000BB2069F0E091F301F091F4010190F0816A
:10058000E02D6EE283EF91E00995E80EF91EDB2C79
:10059000DD2021F120E030E040E251E4C301B2016E
:1005A0000E944A092B013C010E9464084B01A12CC6
:1005B000B12C4AE0C501B4010E94D301E80EF91E36
:1005C000C501B4010E9493089B01AC01C301B201B3
:1005D0000E9480072B013C01DA94DACFC701FF901B
:1005E000EF90DF90CF90BF90AF909F908F907F90D3
:1005F0006F905F904F900895EC01009739F00E9442
:10060000BE0162E271E0CE010E94BE010E9496012D
:100610008F929F92AF92BF92CF92DF92EF92FF9212
:100620000F931F93CF93DF93EC01181619061CF05C
:1006300065E271E01FC0880F991F880F991F0E9403
:100640000C0A8C010097A1F0C0909602D0909702FE
:10065000E0919202F0919302A0909802B0909902DA
:1006600080909402909095027C0120E030E008C0D8
:100670006AE571E080919002909191020E94FC02E3
:100680002C153D05D4F4C9018A0D9B1DB4010E94AF
:10069000BC09DC01AA0FBB1FAA0FBB1FAE0FBF1FF7
:1006A0004D915D916D917C91D7014D935D936D93CB
:1006B0007D937D012F5F3F4FE3CFCF010E94A10AC1
:1006C0001093930200939202109299021092980252
:1006D000809196029091970290939B0280939A0248
:1006E000D0939502C0939402DF91CF911F910F9107
:1006F000FF90EF90DF90CF90BF90AF909F908F9042
:1007000008951F920F920FB60F9211242F933F93CB
:100710008F939F93AF93BF938091EB019091EC01E6
:10072000A091ED01B091EE013091EA0123E0230F99
:100730002D3720F40196A11DB11D05C026E8230F19
:100740000296A11DB11D2093EA018093EB019093C5
:10075000EC01A093ED01B093EE018091EF01909137
:10076000F001A091F101B091F2010196A11DB11D1E
:100770008093EF019093F001A093F101B093F20107
:10078000BF91AF919F918F913F912F910F900FBE8D
:100790000F901F9018951F920F920FB60F92112471
:1007A0002F933F934F935F936F937F938F939F9379
:1007B000AF93BF93EF93FF9383EF91E00E94020109
:1007C000FF91EF91BF91AF919F918F917F916F9129
:1007D0005F914F913F912F910F900FBE0F901F90FF
:1007E00018951F920F920FB60F9211242F938F938B
:1007F0009F93EF93FF93E0910302F09104028081B5
:10080000E0910902F0910A0282FD12C0908180916C
:100810000C028F5F8F7320910D02821751F0E091CF
:100820000C02F0E0ED50FE4F958F80930C0201C05A
:100830008081FF91EF919F918F912F910F900FBE2B
:100840000F901F901895E1EBF0E02491EDE9F0E0B6
:100850009491E9E8F0E0E491EE2309F43BC022230F
:1008600039F1233091F038F42130A9F0223001F52C
:1008700024B52F7D12C0273091F02830A1F024300C
:10088000B9F4209180002F7D03C0209180002F7744
:10089000209380000DC024B52F7724BD09C020917E
:1008A000B0002F7703C02091B0002F7D2093B000BF
:1008B000F0E0EE0FFF1FEE58FF4FA591B4912FB758
:1008C000F894EC91811103C090959E2301C09E2B5A
:1008D0009C932FBF08953FB7F8948091EF019091BA
:1008E000F001A091F101B091F20126B5A89B05C0DD
:1008F0002F3F19F00196A11DB11D3FBFBA2FA92F9F
:10090000982F8827820F911DA11DB11DBC01CD011B
:1009100042E0660F771F881F991F4A95D1F7089507
:100920008F929F92AF92BF92CF92DF92EF92FF92FF
:100930000E946B044B015C018AEFC82ED12CE12C84
:10094000F12C0E946B04DC01CB0188199909AA09DA
:10095000BB09883E9340A105B10558F021E0C21AB9
:10096000D108E108F10888EE880E83E0981EA11CEA
:10097000B11CC114D104E104F10419F7FF90EF9008
:10098000DF90CF90BF90AF909F908F90089510927E
:10099000F6011092F50188EE93E0A0E0B0E08093BC
:1009A000F7019093F801A093F901B093FA018AE05E
:1009B00091E09093F4018093F30185EC90E09093A3
:1009C00000028093FF0184EC90E0909302028093F8
:1009D000010280EC90E0909304028093030281EC8A
:1009E00090E0909306028093050282EC90E0909351
:1009F00008028093070286EC90E090930A028093AD
:100A0000090210920C0210920D0210920E02109226
:100A10000F02109295021092940210929702109277
:100A20009602109299021092980210929B021092D4
:100A30009A02109291021092900288E090E00E9437
:100A40000C0A9093930280939202892B11F40E94D6
:100A5000960182E090E0909395028093940208952D
:100A6000CF93DF9300D000D0CDB7DEB7789484B5B4
:100A7000826084BD84B5816084BD85B5826085BD9A
:100A800085B5816085BD80916E00816080936E0028
:100A9000109281008091810082608093810080911A
:100AA00081008160809381008091800081608093CB
:100AB00080008091B10084608093B1008091B0008B
:100AC00081608093B00080917A00846080937A0086
:100AD00080917A00826080937A0080917A008160B0
:100AE00080937A0080917A00806880937A001092D7
:100AF000C100E0910302F091040282E08083E09162
:100B0000FF01F09100021082E0910102F0910202D7
:100B10008FEC808310920B02E0910702F0910802A3
:100B200086E08083E0910502F09106028081806179
:100B30008083E0910502F0910602808188608083C5
:100B4000E0910502F0910602808180688083E09147
:100B50000502F091060280818F7D808380E10E94F2
:100B60008800BC01990F880B990B0E94950820E022
:100B700030EC4FE754E40E94F20720E030E044EA12
:100B800050E40E944A096093C4017093C5018093A8
:100B9000C6019093C7012091D6013091D7014091B1
:100BA000D8015091D9010E9481076B017C016093AB
:100BB000D6017093D7018093D8019093D9016091A9
:100BC000DA017091DB013B018FEF681A780A7092AD
:100BD000DB016092DA012FB7F8946091EB0170911C
:100BE000EC018091ED019091EE012FBF28EE33E0F2
:100BF00040E050E00E94D00949015A018091E6018D
:100C00009091E701A091E801B091E9018217930763
:100C1000A407B50708F05CC1B301770C880B990BEA
:100C20000E9495089B01AC01C701B6010E94F20722
:100C30002B013C0164E971E083EF91E00E94BE0169
:100C40004AE0C501B4010E94D3016BE971E083EF72
:100C500091E00E94BE0125EF3BED43E250E4C30169
:100C6000B2010E944A092CE13CE74DE150E40E94A8
:100C700080076B017C0120E030E0A9010E94ED07B4
:100C800087FF03C0C12CD12C7601809196029091F0
:100C9000970220919402309195028217930721F4D4
:100CA000880F991F0E94080340919202509193026D
:100CB00080919A0290919B029C012F5F3F4F30934D
:100CC0009B0220939A02880F991F880F991FFA019F
:100CD000E80FF91FC082D182E282F38280919402F0
:100CE000909195022817390721F410929B021092D7
:100CF0009A02E0919602F09197029F012F5F3F4F79
:100D000030939702209396022C333105E4F1209121
:100D1000980230919902B9016F5F7F4F70939902E9
:100D200060939802220F331F220F331FDA01A20FA4
:100D3000B31F2D913D914D915C91F0939702E093FB
:100D400096026817790721F410929902109298027E
:100D5000309769F0BC0197FF02C06D5F7F4F7595BA
:100D60006795759567956E177F070CF0B4C0C7013E
:100D7000B6010E9480076093E2017093E3018093C3
:100D8000E4019093E50142E0C701B6010E9416021A
:100D900061EA71E083EF91E00E94BE0143E0C3018C
:100DA000B2010E94160267EA71E083EF91E00E94AF
:100DB000BE016091E2017091E3018091E4019091A4
:100DC000E50142E00E9416026DEA71E083EF91E0D6
:100DD0000E94BE0182E10E948800BC01990F880B2D
:100DE000990B0E9495086093C8017093C901809384
:100DF000CA019093CB0120E030EC4FE754E40E940D
:100E0000F20720E030E04CE653E40E944A0920E07B
:100E100030E040EB51E40E94800742E00E9416025D
:100E20006AEB71E083EF91E00E94BE0183E10E94D2
:100E30008800BC01990F880B990B0E94950860935C
:100E4000CC017093CD018093CE019093CF0124E12A
:100E50003EEA43E251E40E94F20742E00E94160299
:100E60006FEB71E083EF91E00E94BE0162E271E0FE
:100E700083EF91E00E94BE018092E6019092E7012B
:100E8000A092E801B092E9011092E1011092E00114
:100E90001092DC011092DD011092DE011092DF0150
:100EA0001092DB011092DA011092D6011092D70154
:100EB0001092D8011092D9011092D5011092D4014C
:100EC0001092D0011092D1011092D2011092D30150
:100ED0000E948C0143CE97FD0196959587952983B5
:100EE0003A834B835C830E94080329813A814B81BA
:100EF0005C813DCF80919202909193020C94A10A63
:100F00005058BB27AA270E9498070C940B090E94EF
:100F1000FD0838F00E94040920F039F49F3F19F4CD
:100F200026F40C94FA080EF4E095E7FB0C94F40810
:100F3000E92F0E941C0958F3BA1762077307840748
:100F4000950720F079F4A6F50C943E090EF4E0958F
:100F50000B2EBA2FA02D0B01B90190010C01CA0173
:100F6000A0011124FF27591B99F0593F50F4503E1E
:100F700068F11A16F040A22F232F342F4427585F10
:100F8000F3CF469537952795A795F0405395C9F728
:100F90007EF41F16BA0B620B730B840BBAF09150E0
:100FA000A1F0FF0FBB1F661F771F881FC2F70EC07F
:100FB000BA0F621F731F841F48F487957795679552
:100FC000B795F7959E3F08F0B0CF9395880F08F03E
:100FD0009927EE0F9795879508950E94D00808F4F9
:100FE00081E008950E9406080C940B090E940409F0
:100FF00058F00E94FD0840F029F45F3F29F00C945E
:10100000F40851110C943F090C94FA080E941C0931
:1010100068F39923B1F3552391F3951B550BBB2727
:10102000AA2762177307840738F09F5F5F4F220F6C
:10103000331F441FAA1FA9F335D00E2E3AF0E0E863
:1010400032D091505040E695001CCAF72BD0FE2FAD
:1010500029D0660F771F881FBB1F26173707480741
:10106000AB07B0E809F0BB0B802DBF01FF279358F9
:101070005F4F3AF09E3F510578F00C94F4080C94C1
:101080003F095F3FE4F3983ED4F3869577956795E3
:10109000B795F7959F5FC9F7880F911D969587952E
:1010A00097F90895E1E0660F771F881FBB1F62174D
:1010B00073078407BA0720F0621B730B840BBA0B0B
:1010C000EE1F88F7E09508950E94240988F09F5745
:1010D00098F0B92F9927B751B0F0E1F0660F771F5C
:1010E000881F991F1AF0BA95C9F714C0B13091F052
:1010F0000E943E09B1E008950C943E09672F782FB5
:101100008827B85F39F0B93FCCF386957795679516
:10111000B395D9F73EF490958095709561957F4F82
:101120008F4F9F4F0895E89409C097FB3EF4909528
:101130008095709561957F4F8F4F9F4F9923A9F0B0
:10114000F92F96E9BB279395F6958795779567953F
:10115000B795F111F8CFFAF4BB0F11F460FF1BC083
:101160006F5F7F4F8F4F9F4F16C0882311F096E916
:1011700011C0772321F09EE8872F762F05C06623C4
:1011800071F096E8862F70E060E02AF09A95660F7D
:10119000771F881FDAF7880F9695879597F9089536
:1011A000990F0008550FAA0BE0E8FEEF1616170678
:1011B000E807F907C0F012161306E407F50798F0E0
:1011C000621B730B840B950B39F40A2661F0232BF9
:1011D000242B252B21F408950A2609F4A140A69575
:1011E0008FEF811D811D089597F99F6780E870E05A
:1011F00060E008959FEF80EC089500240A9416168D
:10120000170618060906089500240A9412161306F4
:10121000140605060895092E0394000C11F4882382
:1012200052F0BB0F40F4BF2B11F460FF04C06F5F9E
:101230007F4F8F4F9F4F089557FD9058440F551F74
:1012400059F05F3F71F04795880F97FB991F61F048
:101250009F3F79F087950895121613061406551FBF
:10126000F2CF4695F1DF08C0161617061806991F2B
:10127000F1CF86957105610508940895E894BB2720
:1012800066277727CB0197F908950E94D00808F4C4
:101290008FEF08950E945D090C940B090E94FD08D0
:1012A00038F00E94040920F0952311F00C94F40802
:1012B0000C94FA0811240C943F090E941C0970F345
:1012C000959FC1F3950F50E0551F629FF001729FEB
:1012D000BB27F00DB11D639FAA27F00DB11DAA1FFA
:1012E000649F6627B00DA11D661F829F2227B00D47
:1012F000A11D621F739FB00DA11D621F839FA00DD2
:10130000611D221F749F3327A00D611D231F849F21
:10131000600D211D822F762F6A2F11249F57504078
:101320009AF0F1F088234AF0EE0FFF1FBB1F661FF3
:10133000771F881F91505040A9F79E3F510580F0BC
:101340000C94F4080C943F095F3FE4F3983ED4F307
:10135000869577956795B795F795E7959F5FC1F760
:10136000FE2B880F911D9695879597F908950E94F9
:10137000D008880B990B089597FB072E16F400945C
:1013800007D077FD09D00E94F20907FC05D03EF492
:10139000909581959F4F0895709561957F4F089521
:1013A000A1E21A2EAA1BBB1BFD010DC0AA1FBB1F69
:1013B000EE1FFF1FA217B307E407F50720F0A21BDB
:1013C000B30BE40BF50B661F771F881F991F1A9448
:1013D00069F760957095809590959B01AC01BD0172
:1013E000CF010895AA1BBB1B51E107C0AA1FBB1F59
:1013F000A617B70710F0A61BB70B881F991F5A95A1
:10140000A9F780959095BC01CD010895EE0FFF1FBF
:101410000590F491E02D0994CF93DF9382309105EC
:1014200010F482E090E0E0919E02F0919F0220E0B3
:1014300030E0C0E0D0E0309711F140815181481791
:101440005907C0F04817590761F4828193812097AA
:1014500019F09B838A832BC090939F0280939E02F6
:1014600026C02115310519F04217530718F49A01C7
:10147000BE01DF01EF010280F381E02DDCCF2115F9
:10148000310509F1281B390B2430310590F41296EF
:101490008D919C9113976115710521F0FB01938348
:1014A000828304C090939F0280939E02FD01329636
:1014B00044C0FD01E20FF31F819391932250310943
:1014C0002D933C933AC020919C0230919D02232B96
:1014D00041F4209102013091030130939D02209349
:1014E0009C0220910001309101012115310541F448
:1014F0002DB73EB74091040150910501241B350BD7
:10150000E0919C02F0919D02E217F307A0F42E1BDC
:101510003F0B2817390778F0AC014E5F5F4F241757
:10152000350748F04E0F5F1F50939D0240939C0279
:101530008193919302C0E0E0F0E0CF01DF91CF9181
:1015400008950F931F93CF93DF93009709F48CC0F6
:10155000FC0132971382128200919E0210919F0229
:101560000115110581F420813181820F931F209193
:101570009C0230919D022817390779F5F0939D025E
:10158000E0939C0271C0D80140E050E0AE17BF0765
:1015900050F412962D913C911397AD012115310510
:1015A00009F1D901F3CF9D01DA01338322836081F0
:1015B0007181860F971F8217930769F4EC012881C8
:1015C0003981260F371F2E5F3F4F318320838A8159
:1015D0009B8193838283452B29F4F0939F02E093B0
:1015E0009E0242C01396FC93EE931297ED0149912F
:1015F00059919E01240F351FE217F30771F4808182
:101600009181840F951F029611969C938E938281EF
:10161000938113969C938E931297E0E0F0E0D801AB
:1016200012968D919C911397009719F0F8018C01F7
:10163000F6CF8D919C9198012E5F3F4F820F931FA3
:1016400020919C0230919D022817390769F4309748
:1016500029F410929F0210929E0202C013821282FD
:1016600010939D0200939C02DF91CF911F910F91E7
:10167000089581E090E0F8940C943E0B10E0CDE5E5
:10168000D0E004C0FE010E94060A2196CE35D107A3
:06169000C9F7F894FFCF3A
:101696000000A00280000000000023019F00EC0073
:1016A600CA00DE006A016E616E00696E66006F76C2
:1016B60066000D0A0051554555453A206572726F10
:1016C600722064756520746F20756E646573697227
:1016D60061626C652073697A6520666F7220717528
:1016E6006575652073697A652E0051554555453AED
:1016F60020696E73756666696369656E74206D65CB
:101706006D6F727920746F20696E697469616C6996
:101716007A652074656D706F726172792071756576
:1017260075652E0054696D653A20002073207C2073
:10173600002025207C20002056207C2000203630EA
:1017460073206450504D207C200046207C200025CC
:0417560020524800D5
:00000001FF
